{
  "_format": "hh-sol-artifact-1",
  "contractName": "ChainToken",
  "sourceName": "contracts/ChainToken.sol",
  "abi": [
    {
      "inputs": [
        {
          "internalType": "string",
          "name": "_name",
          "type": "string"
        },
        {
          "internalType": "string",
          "name": "_symbol",
          "type": "string"
        }
      ],
      "stateMutability": "nonpayable",
      "type": "constructor"
    },
    {
      "anonymous": false,
      "inputs": [
        {
          "indexed": false,
          "internalType": "string",
          "name": "_name",
          "type": "string"
        },
        {
          "indexed": false,
          "internalType": "string",
          "name": "_symbol",
          "type": "string"
        }
      ],
      "name": "Mint",
      "type": "event"
    },
    {
      "anonymous": false,
      "inputs": [
        {
          "indexed": true,
          "internalType": "address",
          "name": "_from",
          "type": "address"
        },
        {
          "indexed": true,
          "internalType": "address",
          "name": "_to",
          "type": "address"
        },
        {
          "indexed": false,
          "internalType": "uint256",
          "name": "_value",
          "type": "uint256"
        }
      ],
      "name": "Transfer",
      "type": "event"
    },
    {
      "inputs": [],
      "name": "admin",
      "outputs": [
        {
          "internalType": "address",
          "name": "",
          "type": "address"
        }
      ],
      "stateMutability": "view",
      "type": "function"
    },
    {
      "inputs": [
        {
          "internalType": "address",
          "name": "_owner",
          "type": "address"
        }
      ],
      "name": "balanceOf",
      "outputs": [
        {
          "internalType": "uint256",
          "name": "",
          "type": "uint256"
        }
      ],
      "stateMutability": "view",
      "type": "function"
    },
    {
      "inputs": [
        {
          "internalType": "address",
          "name": "",
          "type": "address"
        }
      ],
      "name": "balances",
      "outputs": [
        {
          "internalType": "uint256",
          "name": "",
          "type": "uint256"
        }
      ],
      "stateMutability": "view",
      "type": "function"
    },
    {
      "inputs": [],
      "name": "name",
      "outputs": [
        {
          "internalType": "string",
          "name": "",
          "type": "string"
        }
      ],
      "stateMutability": "view",
      "type": "function"
    },
    {
      "inputs": [],
      "name": "symbol",
      "outputs": [
        {
          "internalType": "string",
          "name": "",
          "type": "string"
        }
      ],
      "stateMutability": "view",
      "type": "function"
    },
    {
      "inputs": [],
      "name": "totalSupply",
      "outputs": [
        {
          "internalType": "uint256",
          "name": "",
          "type": "uint256"
        }
      ],
      "stateMutability": "view",
      "type": "function"
    },
    {
      "inputs": [
        {
          "internalType": "address",
          "name": "_from",
          "type": "address"
        },
        {
          "internalType": "address",
          "name": "_to",
          "type": "address"
        },
        {
          "internalType": "uint256",
          "name": "_value",
          "type": "uint256"
        }
      ],
      "name": "transfer",
      "outputs": [
        {
          "internalType": "bool",
          "name": "",
          "type": "bool"
        }
      ],
      "stateMutability": "nonpayable",
      "type": "function"
    }
  ],
  "bytecode": "0x60c0604052601260ff1660809060ff16815250620f424060a0908152503480156200002957600080fd5b50604051620011283803806200112883398181016040528101906200004f919062000308565b33600260006101000a81548173ffffffffffffffffffffffffffffffffffffffff021916908373ffffffffffffffffffffffffffffffffffffffff160217905550620000a28282620000aa60201b60201c565b50506200074c565b8160009081620000bb9190620005d8565b508060019081620000cd9190620005d8565b5060a05160036000600260009054906101000a900473ffffffffffffffffffffffffffffffffffffffff1673ffffffffffffffffffffffffffffffffffffffff1673ffffffffffffffffffffffffffffffffffffffff168152602001908152602001600020819055507f803ff40018c774d3666e20707f3df918ffb69ce0491b0b17f01171307df19fd082826040516200016992919062000711565b60405180910390a15050565b6000604051905090565b600080fd5b600080fd5b600080fd5b600080fd5b6000601f19601f8301169050919050565b7f4e487b7100000000000000000000000000000000000000000000000000000000600052604160045260246000fd5b620001de8262000193565b810181811067ffffffffffffffff821117156200020057620001ff620001a4565b5b80604052505050565b60006200021562000175565b9050620002238282620001d3565b919050565b600067ffffffffffffffff821115620002465762000245620001a4565b5b620002518262000193565b9050602081019050919050565b60005b838110156200027e57808201518184015260208101905062000261565b60008484015250505050565b6000620002a16200029b8462000228565b62000209565b905082815260208101848484011115620002c057620002bf6200018e565b5b620002cd8482856200025e565b509392505050565b600082601f830112620002ed57620002ec62000189565b5b8151620002ff8482602086016200028a565b91505092915050565b600080604083850312156200032257620003216200017f565b5b600083015167ffffffffffffffff81111562000343576200034262000184565b5b6200035185828601620002d5565b925050602083015167ffffffffffffffff81111562000375576200037462000184565b5b6200038385828601620002d5565b9150509250929050565b600081519050919050565b7f4e487b7100000000000000000000000000000000000000000000000000000000600052602260045260246000fd5b60006002820490506001821680620003e057607f821691505b602082108103620003f657620003f562000398565b5b50919050565b60008190508160005260206000209050919050565b60006020601f8301049050919050565b600082821b905092915050565b600060088302620004607fffffffffffffffffffffffffffffffffffffffffffffffffffffffffffffffff8262000421565b6200046c868362000421565b95508019841693508086168417925050509392505050565b6000819050919050565b6000819050919050565b6000620004b9620004b3620004ad8462000484565b6200048e565b62000484565b9050919050565b6000819050919050565b620004d58362000498565b620004ed620004e482620004c0565b8484546200042e565b825550505050565b600090565b62000504620004f5565b62000511818484620004ca565b505050565b5b8181101562000539576200052d600082620004fa565b60018101905062000517565b5050565b601f82111562000588576200055281620003fc565b6200055d8462000411565b810160208510156200056d578190505b620005856200057c8562000411565b83018262000516565b50505b505050565b600082821c905092915050565b6000620005ad600019846008026200058d565b1980831691505092915050565b6000620005c883836200059a565b9150826002028217905092915050565b620005e3826200038d565b67ffffffffffffffff811115620005ff57620005fe620001a4565b5b6200060b8254620003c7565b620006188282856200053d565b600060209050601f8311600181146200065057600084156200063b578287015190505b620006478582620005ba565b865550620006b7565b601f1984166200066086620003fc565b60005b828110156200068a5784890151825560018201915060208501945060208101905062000663565b86831015620006aa5784890151620006a6601f8916826200059a565b8355505b6001600288020188555050505b505050505050565b600082825260208201905092915050565b6000620006dd826200038d565b620006e98185620006bf565b9350620006fb8185602086016200025e565b620007068162000193565b840191505092915050565b600060408201905081810360008301526200072d8185620006d0565b90508181036020830152620007438184620006d0565b90509392505050565b60805160a0516109b96200076f600039600061021a0152600050506109b96000f3fe608060405234801561001057600080fd5b506004361061007d5760003560e01c806370a082311161005b57806370a08231146100ee57806395d89b411461011e578063beabacc81461013c578063f851a4401461016c5761007d565b806306fdde031461008257806318160ddd146100a057806327e235e3146100be575b600080fd5b61008a61018a565b60405161009791906105ef565b60405180910390f35b6100a8610218565b6040516100b5919061062a565b60405180910390f35b6100d860048036038101906100d391906106a8565b61023c565b6040516100e5919061062a565b60405180910390f35b610108600480360381019061010391906106a8565b610254565b604051610115919061062a565b60405180910390f35b61012661030b565b60405161013391906105ef565b60405180910390f35b61015660048036038101906101519190610701565b610399565b604051610163919061076f565b60405180910390f35b610174610539565b6040516101819190610799565b60405180910390f35b60008054610197906107e3565b80601f01602080910402602001604051908101604052809291908181526020018280546101c3906107e3565b80156102105780601f106101e557610100808354040283529160200191610210565b820191906000526020600020905b8154815290600101906020018083116101f357829003601f168201915b505050505081565b7f000000000000000000000000000000000000000000000000000000000000000081565b60036020528060005260406000206000915090505481565b60008073ffffffffffffffffffffffffffffffffffffffff168273ffffffffffffffffffffffffffffffffffffffff16036102c4576040517f08c379a00000000000000000000000000000000000000000000000000000000081526004016102bb90610860565b60405180910390fd5b600360008373ffffffffffffffffffffffffffffffffffffffff1673ffffffffffffffffffffffffffffffffffffffff168152602001908152602001600020549050919050565b60018054610318906107e3565b80601f0160208091040260200160405190810160405280929190818152602001828054610344906107e3565b80156103915780601f1061036657610100808354040283529160200191610391565b820191906000526020600020905b81548152906001019060200180831161037457829003601f168201915b505050505081565b600081600360008673ffffffffffffffffffffffffffffffffffffffff1673ffffffffffffffffffffffffffffffffffffffff16815260200190815260200160002054101561041d576040517f08c379a0000000000000000000000000000000000000000000000000000000008152600401610414906108cc565b60405180910390fd5b81600360008673ffffffffffffffffffffffffffffffffffffffff1673ffffffffffffffffffffffffffffffffffffffff168152602001908152602001600020600082825461046c919061091b565b9250508190555081600360008573ffffffffffffffffffffffffffffffffffffffff1673ffffffffffffffffffffffffffffffffffffffff16815260200190815260200160002060008282546104c2919061094f565b925050819055508273ffffffffffffffffffffffffffffffffffffffff168473ffffffffffffffffffffffffffffffffffffffff167fddf252ad1be2c89b69c2b068fc378daa952ba7f163c4a11628f55a4df523b3ef84604051610526919061062a565b60405180910390a3600190509392505050565b600260009054906101000a900473ffffffffffffffffffffffffffffffffffffffff1681565b600081519050919050565b600082825260208201905092915050565b60005b8381101561059957808201518184015260208101905061057e565b60008484015250505050565b6000601f19601f8301169050919050565b60006105c18261055f565b6105cb818561056a565b93506105db81856020860161057b565b6105e4816105a5565b840191505092915050565b6000602082019050818103600083015261060981846105b6565b905092915050565b6000819050919050565b61062481610611565b82525050565b600060208201905061063f600083018461061b565b92915050565b600080fd5b600073ffffffffffffffffffffffffffffffffffffffff82169050919050565b60006106758261064a565b9050919050565b6106858161066a565b811461069057600080fd5b50565b6000813590506106a28161067c565b92915050565b6000602082840312156106be576106bd610645565b5b60006106cc84828501610693565b91505092915050565b6106de81610611565b81146106e957600080fd5b50565b6000813590506106fb816106d5565b92915050565b60008060006060848603121561071a57610719610645565b5b600061072886828701610693565b935050602061073986828701610693565b925050604061074a868287016106ec565b9150509250925092565b60008115159050919050565b61076981610754565b82525050565b60006020820190506107846000830184610760565b92915050565b6107938161066a565b82525050565b60006020820190506107ae600083018461078a565b92915050565b7f4e487b7100000000000000000000000000000000000000000000000000000000600052602260045260246000fd5b600060028204905060018216806107fb57607f821691505b60208210810361080e5761080d6107b4565b5b50919050565b7f4e6f74206120546f6b656e204f776e6572000000000000000000000000000000600082015250565b600061084a60118361056a565b915061085582610814565b602082019050919050565b600060208201905081810360008301526108798161083d565b9050919050565b7f496e73756666696369656e742042616c616e6365000000000000000000000000600082015250565b60006108b660148361056a565b91506108c182610880565b602082019050919050565b600060208201905081810360008301526108e5816108a9565b9050919050565b7f4e487b7100000000000000000000000000000000000000000000000000000000600052601160045260246000fd5b600061092682610611565b915061093183610611565b9250828203905081811115610949576109486108ec565b5b92915050565b600061095a82610611565b915061096583610611565b925082820190508082111561097d5761097c6108ec565b5b9291505056fea2646970667358221220f562ceb2388b2a4565acd216bd456f9a2101a9d050278a978348e5bc1cce9cf264736f6c63430008120033",
  "linkReferences": {},
  "deployedLinkReferences": {}
}