{
  "_format": "hh-sol-artifact-1",
  "contractName": "ChainKart",
  "sourceName": "contracts/ChainKart.sol",
  "abi": [
    {
      "inputs": [
        {
          "internalType": "address",
          "name": "_tokenContract",
          "type": "address"
        }
      ],
      "stateMutability": "nonpayable",
      "type": "constructor"
    },
    {
      "inputs": [],
      "name": "admin",
      "outputs": [
        {
          "internalType": "address",
          "name": "",
          "type": "address"
        }
      ],
      "stateMutability": "view",
      "type": "function"
    },
    {
      "inputs": [
        {
          "internalType": "string",
          "name": "username",
          "type": "string"
        }
      ],
      "name": "checkBalance",
      "outputs": [
        {
          "internalType": "uint256",
          "name": "",
          "type": "uint256"
        }
      ],
      "stateMutability": "view",
      "type": "function"
    },
    {
      "inputs": [
        {
          "internalType": "string",
          "name": "username",
          "type": "string"
        }
      ],
      "name": "deploySellerContract",
      "outputs": [],
      "stateMutability": "nonpayable",
      "type": "function"
    },
    {
      "inputs": [
        {
          "internalType": "string",
          "name": "username",
          "type": "string"
        }
      ],
      "name": "deployUserContract",
      "outputs": [],
      "stateMutability": "nonpayable",
      "type": "function"
    },
    {
      "inputs": [
        {
          "internalType": "string",
          "name": "",
          "type": "string"
        }
      ],
      "name": "deployedContracts",
      "outputs": [
        {
          "internalType": "address",
          "name": "",
          "type": "address"
        }
      ],
      "stateMutability": "view",
      "type": "function"
    },
    {
      "inputs": [],
      "name": "token",
      "outputs": [
        {
          "internalType": "contract ChainToken",
          "name": "",
          "type": "address"
        }
      ],
      "stateMutability": "view",
      "type": "function"
    },
    {
      "inputs": [
        {
          "internalType": "string",
          "name": "username",
          "type": "string"
        },
        {
          "internalType": "uint256",
          "name": "_value",
          "type": "uint256"
        }
      ],
      "name": "transferBack",
      "outputs": [],
      "stateMutability": "nonpayable",
      "type": "function"
    },
    {
      "inputs": [
        {
          "internalType": "string",
          "name": "_seller",
          "type": "string"
        },
        {
          "internalType": "string",
          "name": "_user",
          "type": "string"
        },
        {
          "internalType": "uint256",
          "name": "_value",
          "type": "uint256"
        }
      ],
      "name": "transferFromSeller",
      "outputs": [],
      "stateMutability": "nonpayable",
      "type": "function"
    },
    {
      "inputs": [
        {
          "internalType": "string",
          "name": "username",
          "type": "string"
        },
        {
          "internalType": "uint256",
          "name": "_value",
          "type": "uint256"
        }
      ],
      "name": "transferToken",
      "outputs": [],
      "stateMutability": "nonpayable",
      "type": "function"
    }
  ],
  "bytecode": "0x60806040523480156200001157600080fd5b5060405162003549380380620035498339818101604052810190620000379190620001e7565b80600160006101000a81548173ffffffffffffffffffffffffffffffffffffffff021916908373ffffffffffffffffffffffffffffffffffffffff16021790555080600360006101000a81548173ffffffffffffffffffffffffffffffffffffffff021916908373ffffffffffffffffffffffffffffffffffffffff160217905550336000806101000a81548173ffffffffffffffffffffffffffffffffffffffff021916908373ffffffffffffffffffffffffffffffffffffffff16021790555060008054906101000a900473ffffffffffffffffffffffffffffffffffffffff1660026040516200012a9062000274565b908152602001604051809103902060006101000a81548173ffffffffffffffffffffffffffffffffffffffff021916908373ffffffffffffffffffffffffffffffffffffffff160217905550506200028b565b600080fd5b600073ffffffffffffffffffffffffffffffffffffffff82169050919050565b6000620001af8262000182565b9050919050565b620001c181620001a2565b8114620001cd57600080fd5b50565b600081519050620001e181620001b6565b92915050565b6000602082840312156200020057620001ff6200017d565b5b60006200021084828501620001d0565b91505092915050565b600081905092915050565b7f636f6e74726163744f776e657200000000000000000000000000000000000000600082015250565b60006200025c600d8362000219565b9150620002698262000224565b600d82019050919050565b600062000281826200024d565b9150819050919050565b6132ae806200029b6000396000f3fe60806040523480156200001157600080fd5b5060043610620000a05760003560e01c8063c63093f0116200006f578063c63093f0146200013b578063c820674e1462000171578063e311d55e1462000191578063f851a44014620001b1578063fc0c546a14620001d357620000a0565b806376b4ec3c14620000a557806378aa119414620000c5578063973900a014620000e5578063a483bfe3146200011b575b600080fd5b620000c36004803603810190620000bd91906200100c565b620001f5565b005b620000e36004803603810190620000dd919062001072565b6200049e565b005b620001036004803603810190620000fd919062001072565b620006a7565b604051620001129190620010d4565b60405180910390f35b62000139600480360381019062000133919062001072565b62000796565b005b62000159600480360381019062000153919062001072565b6200099f565b60405162000168919062001136565b60405180910390f35b6200018f600480360381019062000189919062001153565b620009e8565b005b620001af6004803603810190620001a991906200100c565b62000c02565b005b620001bb62000df5565b604051620001ca919062001136565b60405180910390f35b620001dd62000e19565b604051620001ec919062001258565b60405180910390f35b60008054906101000a900473ffffffffffffffffffffffffffffffffffffffff1673ffffffffffffffffffffffffffffffffffffffff163373ffffffffffffffffffffffffffffffffffffffff161462000286576040517f08c379a00000000000000000000000000000000000000000000000000000000081526004016200027d90620012d6565b60405180910390fd5b80600360009054906101000a900473ffffffffffffffffffffffffffffffffffffffff1673ffffffffffffffffffffffffffffffffffffffff166327e235e360008054906101000a900473ffffffffffffffffffffffffffffffffffffffff166040518263ffffffff1660e01b815260040162000304919062001136565b602060405180830381865afa15801562000322573d6000803e3d6000fd5b505050506040513d601f19601f820116820180604052508101906200034891906200130f565b10156200038c576040517f08c379a0000000000000000000000000000000000000000000000000000000008152600401620003839062001391565b60405180910390fd5b6000600283604051620003a091906200142c565b908152602001604051809103902060009054906101000a900473ffffffffffffffffffffffffffffffffffffffff169050600360009054906101000a900473ffffffffffffffffffffffffffffffffffffffff1673ffffffffffffffffffffffffffffffffffffffff1663beabacc860008054906101000a900473ffffffffffffffffffffffffffffffffffffffff1683856040518463ffffffff1660e01b8152600401620004529392919062001445565b6020604051808303816000875af115801562000472573d6000803e3d6000fd5b505050506040513d601f19601f82011682018060405250810190620004989190620014bf565b50505050565b60008054906101000a900473ffffffffffffffffffffffffffffffffffffffff1673ffffffffffffffffffffffffffffffffffffffff163373ffffffffffffffffffffffffffffffffffffffff16146200052f576040517f08c379a00000000000000000000000000000000000000000000000000000000081526004016200052690620012d6565b60405180910390fd5b600073ffffffffffffffffffffffffffffffffffffffff166002826040516200055991906200142c565b908152602001604051809103902060009054906101000a900473ffffffffffffffffffffffffffffffffffffffff1673ffffffffffffffffffffffffffffffffffffffff1614620005e1576040517f08c379a0000000000000000000000000000000000000000000000000000000008152600401620005d89062001567565b60405180910390fd5b60008133600160009054906101000a900473ffffffffffffffffffffffffffffffffffffffff16604051620006169062000e3f565b6200062493929190620015ca565b604051809103906000f08015801562000641573d6000803e3d6000fd5b509050806002836040516200065791906200142c565b908152602001604051809103902060006101000a81548173ffffffffffffffffffffffffffffffffffffffff021916908373ffffffffffffffffffffffffffffffffffffffff1602179055505050565b600080600360009054906101000a900473ffffffffffffffffffffffffffffffffffffffff1673ffffffffffffffffffffffffffffffffffffffff166370a08231600285604051620006fa91906200142c565b908152602001604051809103902060009054906101000a900473ffffffffffffffffffffffffffffffffffffffff166040518263ffffffff1660e01b815260040162000747919062001136565b602060405180830381865afa15801562000765573d6000803e3d6000fd5b505050506040513d601f19601f820116820180604052508101906200078b91906200130f565b905080915050919050565b60008054906101000a900473ffffffffffffffffffffffffffffffffffffffff1673ffffffffffffffffffffffffffffffffffffffff163373ffffffffffffffffffffffffffffffffffffffff161462000827576040517f08c379a00000000000000000000000000000000000000000000000000000000081526004016200081e90620012d6565b60405180910390fd5b600073ffffffffffffffffffffffffffffffffffffffff166002826040516200085191906200142c565b908152602001604051809103902060009054906101000a900473ffffffffffffffffffffffffffffffffffffffff1673ffffffffffffffffffffffffffffffffffffffff1614620008d9576040517f08c379a0000000000000000000000000000000000000000000000000000000008152600401620008d09062001684565b60405180910390fd5b60008133600160009054906101000a900473ffffffffffffffffffffffffffffffffffffffff166040516200090e9062000e4d565b6200091c93929190620015ca565b604051809103906000f08015801562000939573d6000803e3d6000fd5b509050806002836040516200094f91906200142c565b908152602001604051809103902060006101000a81548173ffffffffffffffffffffffffffffffffffffffff021916908373ffffffffffffffffffffffffffffffffffffffff1602179055505050565b6002818051602081018201805184825260208301602085012081835280955050505050506000915054906101000a900473ffffffffffffffffffffffffffffffffffffffff1681565b60008054906101000a900473ffffffffffffffffffffffffffffffffffffffff1673ffffffffffffffffffffffffffffffffffffffff163373ffffffffffffffffffffffffffffffffffffffff161462000a79576040517f08c379a000000000000000000000000000000000000000000000000000000000815260040162000a7090620012d6565b60405180910390fd5b8062000a8584620006a7565b101562000ac9576040517f08c379a000000000000000000000000000000000000000000000000000000000815260040162000ac09062001391565b60405180910390fd5b600060028360405162000add91906200142c565b908152602001604051809103902060009054906101000a900473ffffffffffffffffffffffffffffffffffffffff169050600060028560405162000b2291906200142c565b908152602001604051809103902060009054906101000a900473ffffffffffffffffffffffffffffffffffffffff169050600360009054906101000a900473ffffffffffffffffffffffffffffffffffffffff1673ffffffffffffffffffffffffffffffffffffffff1663beabacc88284866040518463ffffffff1660e01b815260040162000bb49392919062001445565b6020604051808303816000875af115801562000bd4573d6000803e3d6000fd5b505050506040513d601f19601f8201168201806040525081019062000bfa9190620014bf565b505050505050565b60008054906101000a900473ffffffffffffffffffffffffffffffffffffffff1673ffffffffffffffffffffffffffffffffffffffff163373ffffffffffffffffffffffffffffffffffffffff161462000c93576040517f08c379a000000000000000000000000000000000000000000000000000000000815260040162000c8a90620012d6565b60405180910390fd5b8062000c9f83620006a7565b101562000ce3576040517f08c379a000000000000000000000000000000000000000000000000000000000815260040162000cda9062001391565b60405180910390fd5b600060028360405162000cf791906200142c565b908152602001604051809103902060009054906101000a900473ffffffffffffffffffffffffffffffffffffffff169050600360009054906101000a900473ffffffffffffffffffffffffffffffffffffffff1673ffffffffffffffffffffffffffffffffffffffff1663beabacc88260008054906101000a900473ffffffffffffffffffffffffffffffffffffffff16856040518463ffffffff1660e01b815260040162000da99392919062001445565b6020604051808303816000875af115801562000dc9573d6000803e3d6000fd5b505050506040513d601f19601f8201168201806040525081019062000def9190620014bf565b50505050565b60008054906101000a900473ffffffffffffffffffffffffffffffffffffffff1681565b600360009054906101000a900473ffffffffffffffffffffffffffffffffffffffff1681565b610e8680620016a783390190565b610d4c806200252d83390190565b6000604051905090565b600080fd5b600080fd5b600080fd5b600080fd5b6000601f19601f8301169050919050565b7f4e487b7100000000000000000000000000000000000000000000000000000000600052604160045260246000fd5b62000ec48262000e79565b810181811067ffffffffffffffff8211171562000ee65762000ee562000e8a565b5b80604052505050565b600062000efb62000e5b565b905062000f09828262000eb9565b919050565b600067ffffffffffffffff82111562000f2c5762000f2b62000e8a565b5b62000f378262000e79565b9050602081019050919050565b82818337600083830152505050565b600062000f6a62000f648462000f0e565b62000eef565b90508281526020810184848401111562000f895762000f8862000e74565b5b62000f9684828562000f44565b509392505050565b600082601f83011262000fb65762000fb562000e6f565b5b813562000fc884826020860162000f53565b91505092915050565b6000819050919050565b62000fe68162000fd1565b811462000ff257600080fd5b50565b600081359050620010068162000fdb565b92915050565b6000806040838503121562001026576200102562000e65565b5b600083013567ffffffffffffffff81111562001047576200104662000e6a565b5b620010558582860162000f9e565b9250506020620010688582860162000ff5565b9150509250929050565b6000602082840312156200108b576200108a62000e65565b5b600082013567ffffffffffffffff811115620010ac57620010ab62000e6a565b5b620010ba8482850162000f9e565b91505092915050565b620010ce8162000fd1565b82525050565b6000602082019050620010eb6000830184620010c3565b92915050565b600073ffffffffffffffffffffffffffffffffffffffff82169050919050565b60006200111e82620010f1565b9050919050565b620011308162001111565b82525050565b60006020820190506200114d600083018462001125565b92915050565b6000806000606084860312156200116f576200116e62000e65565b5b600084013567ffffffffffffffff81111562001190576200118f62000e6a565b5b6200119e8682870162000f9e565b935050602084013567ffffffffffffffff811115620011c257620011c162000e6a565b5b620011d08682870162000f9e565b9250506040620011e38682870162000ff5565b9150509250925092565b6000819050919050565b600062001218620012126200120c84620010f1565b620011ed565b620010f1565b9050919050565b60006200122c82620011f7565b9050919050565b600062001240826200121f565b9050919050565b620012528162001233565b82525050565b60006020820190506200126f600083018462001247565b92915050565b600082825260208201905092915050565b7f4f6e6c792061646d696e2063616e2063616c6c20746869730000000000000000600082015250565b6000620012be60188362001275565b9150620012cb8262001286565b602082019050919050565b60006020820190508181036000830152620012f181620012af565b9050919050565b600081519050620013098162000fdb565b92915050565b60006020828403121562001328576200132762000e65565b5b60006200133884828501620012f8565b91505092915050565b7f496e73756666696369656e742042616c616e6365000000000000000000000000600082015250565b60006200137960148362001275565b9150620013868262001341565b602082019050919050565b60006020820190508181036000830152620013ac816200136a565b9050919050565b600081519050919050565b600081905092915050565b60005b83811015620013e9578082015181840152602081019050620013cc565b60008484015250505050565b60006200140282620013b3565b6200140e8185620013be565b935062001420818560208601620013c9565b80840191505092915050565b60006200143a8284620013f5565b915081905092915050565b60006060820190506200145c600083018662001125565b6200146b602083018562001125565b6200147a6040830184620010c3565b949350505050565b60008115159050919050565b620014998162001482565b8114620014a557600080fd5b50565b600081519050620014b9816200148e565b92915050565b600060208284031215620014d857620014d762000e65565b5b6000620014e884828501620014a8565b91505092915050565b7f436f6e747261637420616c72656164792065786973747320666f72207468697360008201527f2073656c6c657200000000000000000000000000000000000000000000000000602082015250565b60006200154f60278362001275565b91506200155c82620014f1565b604082019050919050565b60006020820190508181036000830152620015828162001540565b9050919050565b60006200159682620013b3565b620015a2818562001275565b9350620015b4818560208601620013c9565b620015bf8162000e79565b840191505092915050565b60006060820190508181036000830152620015e6818662001589565b9050620015f7602083018562001125565b62001606604083018462001125565b949350505050565b7f436f6e747261637420616c72656164792065786973747320666f72207468697360008201527f2075736572000000000000000000000000000000000000000000000000000000602082015250565b60006200166c60258362001275565b915062001679826200160e565b604082019050919050565b600060208201905081810360008301526200169f816200165d565b905091905056fe60806040523480156200001157600080fd5b5060405162000e8638038062000e868339818101604052810190620000379190620002cc565b826000908162000048919062000592565b5081600160006101000a81548173ffffffffffffffffffffffffffffffffffffffff021916908373ffffffffffffffffffffffffffffffffffffffff16021790555080600260006101000a81548173ffffffffffffffffffffffffffffffffffffffff021916908373ffffffffffffffffffffffffffffffffffffffff16021790555050505062000679565b6000604051905090565b600080fd5b600080fd5b600080fd5b600080fd5b6000601f19601f8301169050919050565b7f4e487b7100000000000000000000000000000000000000000000000000000000600052604160045260246000fd5b6200013d82620000f2565b810181811067ffffffffffffffff821117156200015f576200015e62000103565b5b80604052505050565b600062000174620000d4565b905062000182828262000132565b919050565b600067ffffffffffffffff821115620001a557620001a462000103565b5b620001b082620000f2565b9050602081019050919050565b60005b83811015620001dd578082015181840152602081019050620001c0565b60008484015250505050565b600062000200620001fa8462000187565b62000168565b9050828152602081018484840111156200021f576200021e620000ed565b5b6200022c848285620001bd565b509392505050565b600082601f8301126200024c576200024b620000e8565b5b81516200025e848260208601620001e9565b91505092915050565b600073ffffffffffffffffffffffffffffffffffffffff82169050919050565b6000620002948262000267565b9050919050565b620002a68162000287565b8114620002b257600080fd5b50565b600081519050620002c6816200029b565b92915050565b600080600060608486031215620002e857620002e7620000de565b5b600084015167ffffffffffffffff811115620003095762000308620000e3565b5b620003178682870162000234565b93505060206200032a86828701620002b5565b92505060406200033d86828701620002b5565b9150509250925092565b600081519050919050565b7f4e487b7100000000000000000000000000000000000000000000000000000000600052602260045260246000fd5b600060028204905060018216806200039a57607f821691505b602082108103620003b057620003af62000352565b5b50919050565b60008190508160005260206000209050919050565b60006020601f8301049050919050565b600082821b905092915050565b6000600883026200041a7fffffffffffffffffffffffffffffffffffffffffffffffffffffffffffffffff82620003db565b620004268683620003db565b95508019841693508086168417925050509392505050565b6000819050919050565b6000819050919050565b6000620004736200046d62000467846200043e565b62000448565b6200043e565b9050919050565b6000819050919050565b6200048f8362000452565b620004a76200049e826200047a565b848454620003e8565b825550505050565b600090565b620004be620004af565b620004cb81848462000484565b505050565b5b81811015620004f357620004e7600082620004b4565b600181019050620004d1565b5050565b601f82111562000542576200050c81620003b6565b6200051784620003cb565b8101602085101562000527578190505b6200053f6200053685620003cb565b830182620004d0565b50505b505050565b600082821c905092915050565b6000620005676000198460080262000547565b1980831691505092915050565b600062000582838362000554565b9150826002028217905092915050565b6200059d8262000347565b67ffffffffffffffff811115620005b957620005b862000103565b5b620005c5825462000381565b620005d2828285620004f7565b600060209050601f8311600181146200060a5760008415620005f5578287015190505b62000601858262000574565b86555062000671565b601f1984166200061a86620003b6565b60005b8281101562000644578489015182556001820191506020850194506020810190506200061d565b8683101562000664578489015162000660601f89168262000554565b8355505b6001600288020188555050505b505050505050565b6107fd80620006896000396000f3fe608060405234801561001057600080fd5b50600436106100625760003560e01c806361fac54d14610067578063d721553814610085578063e42d0aac146100a3578063e56c7a4f146100bf578063f851a440146100db578063fc0c546a146100f9575b600080fd5b61006f610117565b60405161007c9190610493565b60405180910390f35b61008d6101a5565b60405161009a91906104ce565b60405180910390f35b6100bd60048036038101906100b89190610578565b610248565b005b6100d960048036038101906100d491906105b8565b6102ef565b005b6100e36103b7565b6040516100f091906105f4565b60405180910390f35b6101016103dd565b60405161010e919061066e565b60405180910390f35b60008054610124906106b8565b80601f0160208091040260200160405190810160405280929190818152602001828054610150906106b8565b801561019d5780601f106101725761010080835404028352916020019161019d565b820191906000526020600020905b81548152906001019060200180831161018057829003601f168201915b505050505081565b6000600260009054906101000a900473ffffffffffffffffffffffffffffffffffffffff1673ffffffffffffffffffffffffffffffffffffffff166370a08231306040518263ffffffff1660e01b815260040161020291906105f4565b602060405180830381865afa15801561021f573d6000803e3d6000fd5b505050506040513d601f19601f8201168201806040525081019061024391906106fe565b905090565b600260009054906101000a900473ffffffffffffffffffffffffffffffffffffffff1673ffffffffffffffffffffffffffffffffffffffff1663beabacc83084846040518463ffffffff1660e01b81526004016102a79392919061072b565b6020604051808303816000875af11580156102c6573d6000803e3d6000fd5b505050506040513d601f19601f820116820180604052508101906102ea919061079a565b505050565b600260009054906101000a900473ffffffffffffffffffffffffffffffffffffffff1673ffffffffffffffffffffffffffffffffffffffff1663beabacc830600160009054906101000a900473ffffffffffffffffffffffffffffffffffffffff16846040518463ffffffff1660e01b81526004016103709392919061072b565b6020604051808303816000875af115801561038f573d6000803e3d6000fd5b505050506040513d601f19601f820116820180604052508101906103b3919061079a565b5050565b600160009054906101000a900473ffffffffffffffffffffffffffffffffffffffff1681565b600260009054906101000a900473ffffffffffffffffffffffffffffffffffffffff1681565b600081519050919050565b600082825260208201905092915050565b60005b8381101561043d578082015181840152602081019050610422565b60008484015250505050565b6000601f19601f8301169050919050565b600061046582610403565b61046f818561040e565b935061047f81856020860161041f565b61048881610449565b840191505092915050565b600060208201905081810360008301526104ad818461045a565b905092915050565b6000819050919050565b6104c8816104b5565b82525050565b60006020820190506104e360008301846104bf565b92915050565b600080fd5b600073ffffffffffffffffffffffffffffffffffffffff82169050919050565b6000610519826104ee565b9050919050565b6105298161050e565b811461053457600080fd5b50565b60008135905061054681610520565b92915050565b610555816104b5565b811461056057600080fd5b50565b6000813590506105728161054c565b92915050565b6000806040838503121561058f5761058e6104e9565b5b600061059d85828601610537565b92505060206105ae85828601610563565b9150509250929050565b6000602082840312156105ce576105cd6104e9565b5b60006105dc84828501610563565b91505092915050565b6105ee8161050e565b82525050565b600060208201905061060960008301846105e5565b92915050565b6000819050919050565b600061063461062f61062a846104ee565b61060f565b6104ee565b9050919050565b600061064682610619565b9050919050565b60006106588261063b565b9050919050565b6106688161064d565b82525050565b6000602082019050610683600083018461065f565b92915050565b7f4e487b7100000000000000000000000000000000000000000000000000000000600052602260045260246000fd5b600060028204905060018216806106d057607f821691505b6020821081036106e3576106e2610689565b5b50919050565b6000815190506106f88161054c565b92915050565b600060208284031215610714576107136104e9565b5b6000610722848285016106e9565b91505092915050565b600060608201905061074060008301866105e5565b61074d60208301856105e5565b61075a60408301846104bf565b949350505050565b60008115159050919050565b61077781610762565b811461078257600080fd5b50565b6000815190506107948161076e565b92915050565b6000602082840312156107b0576107af6104e9565b5b60006107be84828501610785565b9150509291505056fea264697066735822122012325c6085129e313b800d57ade8e1864a5d05111a918c6fedfa85f50d4eb9fb64736f6c6343000812003360806040523480156200001157600080fd5b5060405162000d4c38038062000d4c8339818101604052810190620000379190620002cc565b826000908162000048919062000592565b5081600160006101000a81548173ffffffffffffffffffffffffffffffffffffffff021916908373ffffffffffffffffffffffffffffffffffffffff16021790555080600260006101000a81548173ffffffffffffffffffffffffffffffffffffffff021916908373ffffffffffffffffffffffffffffffffffffffff16021790555050505062000679565b6000604051905090565b600080fd5b600080fd5b600080fd5b600080fd5b6000601f19601f8301169050919050565b7f4e487b7100000000000000000000000000000000000000000000000000000000600052604160045260246000fd5b6200013d82620000f2565b810181811067ffffffffffffffff821117156200015f576200015e62000103565b5b80604052505050565b600062000174620000d4565b905062000182828262000132565b919050565b600067ffffffffffffffff821115620001a557620001a462000103565b5b620001b082620000f2565b9050602081019050919050565b60005b83811015620001dd578082015181840152602081019050620001c0565b60008484015250505050565b600062000200620001fa8462000187565b62000168565b9050828152602081018484840111156200021f576200021e620000ed565b5b6200022c848285620001bd565b509392505050565b600082601f8301126200024c576200024b620000e8565b5b81516200025e848260208601620001e9565b91505092915050565b600073ffffffffffffffffffffffffffffffffffffffff82169050919050565b6000620002948262000267565b9050919050565b620002a68162000287565b8114620002b257600080fd5b50565b600081519050620002c6816200029b565b92915050565b600080600060608486031215620002e857620002e7620000de565b5b600084015167ffffffffffffffff811115620003095762000308620000e3565b5b620003178682870162000234565b93505060206200032a86828701620002b5565b92505060406200033d86828701620002b5565b9150509250925092565b600081519050919050565b7f4e487b7100000000000000000000000000000000000000000000000000000000600052602260045260246000fd5b600060028204905060018216806200039a57607f821691505b602082108103620003b057620003af62000352565b5b50919050565b60008190508160005260206000209050919050565b60006020601f8301049050919050565b600082821b905092915050565b6000600883026200041a7fffffffffffffffffffffffffffffffffffffffffffffffffffffffffffffffff82620003db565b620004268683620003db565b95508019841693508086168417925050509392505050565b6000819050919050565b6000819050919050565b6000620004736200046d62000467846200043e565b62000448565b6200043e565b9050919050565b6000819050919050565b6200048f8362000452565b620004a76200049e826200047a565b848454620003e8565b825550505050565b600090565b620004be620004af565b620004cb81848462000484565b505050565b5b81811015620004f357620004e7600082620004b4565b600181019050620004d1565b5050565b601f82111562000542576200050c81620003b6565b6200051784620003cb565b8101602085101562000527578190505b6200053f6200053685620003cb565b830182620004d0565b50505b505050565b600082821c905092915050565b6000620005676000198460080262000547565b1980831691505092915050565b600062000582838362000554565b9150826002028217905092915050565b6200059d8262000347565b67ffffffffffffffff811115620005b957620005b862000103565b5b620005c5825462000381565b620005d2828285620004f7565b600060209050601f8311600181146200060a5760008415620005f5578287015190505b62000601858262000574565b86555062000671565b601f1984166200061a86620003b6565b60005b8281101562000644578489015182556001820191506020850194506020810190506200061d565b8683101562000664578489015162000660601f89168262000554565b8355505b6001600288020188555050505b505050505050565b6106c380620006896000396000f3fe608060405234801561001057600080fd5b50600436106100575760003560e01c8063354c658e1461005c57806361fac54d1461007a578063e56c7a4f14610098578063f851a440146100b4578063fc0c546a146100d2575b600080fd5b6100646100f0565b604051610071919061034e565b60405180910390f35b610082610193565b60405161008f91906103f9565b60405180910390f35b6100b260048036038101906100ad919061044c565b610221565b005b6100bc6102e9565b6040516100c991906104ba565b60405180910390f35b6100da61030f565b6040516100e79190610534565b60405180910390f35b6000600260009054906101000a900473ffffffffffffffffffffffffffffffffffffffff1673ffffffffffffffffffffffffffffffffffffffff166370a08231306040518263ffffffff1660e01b815260040161014d91906104ba565b602060405180830381865afa15801561016a573d6000803e3d6000fd5b505050506040513d601f19601f8201168201806040525081019061018e9190610564565b905090565b600080546101a0906105c0565b80601f01602080910402602001604051908101604052809291908181526020018280546101cc906105c0565b80156102195780601f106101ee57610100808354040283529160200191610219565b820191906000526020600020905b8154815290600101906020018083116101fc57829003601f168201915b505050505081565b600260009054906101000a900473ffffffffffffffffffffffffffffffffffffffff1673ffffffffffffffffffffffffffffffffffffffff1663beabacc830600160009054906101000a900473ffffffffffffffffffffffffffffffffffffffff16846040518463ffffffff1660e01b81526004016102a2939291906105f1565b6020604051808303816000875af11580156102c1573d6000803e3d6000fd5b505050506040513d601f19601f820116820180604052508101906102e59190610660565b5050565b600160009054906101000a900473ffffffffffffffffffffffffffffffffffffffff1681565b600260009054906101000a900473ffffffffffffffffffffffffffffffffffffffff1681565b6000819050919050565b61034881610335565b82525050565b6000602082019050610363600083018461033f565b92915050565b600081519050919050565b600082825260208201905092915050565b60005b838110156103a3578082015181840152602081019050610388565b60008484015250505050565b6000601f19601f8301169050919050565b60006103cb82610369565b6103d58185610374565b93506103e5818560208601610385565b6103ee816103af565b840191505092915050565b6000602082019050818103600083015261041381846103c0565b905092915050565b600080fd5b61042981610335565b811461043457600080fd5b50565b60008135905061044681610420565b92915050565b6000602082840312156104625761046161041b565b5b600061047084828501610437565b91505092915050565b600073ffffffffffffffffffffffffffffffffffffffff82169050919050565b60006104a482610479565b9050919050565b6104b481610499565b82525050565b60006020820190506104cf60008301846104ab565b92915050565b6000819050919050565b60006104fa6104f56104f084610479565b6104d5565b610479565b9050919050565b600061050c826104df565b9050919050565b600061051e82610501565b9050919050565b61052e81610513565b82525050565b60006020820190506105496000830184610525565b92915050565b60008151905061055e81610420565b92915050565b60006020828403121561057a5761057961041b565b5b60006105888482850161054f565b91505092915050565b7f4e487b7100000000000000000000000000000000000000000000000000000000600052602260045260246000fd5b600060028204905060018216806105d857607f821691505b6020821081036105eb576105ea610591565b5b50919050565b600060608201905061060660008301866104ab565b61061360208301856104ab565b610620604083018461033f565b949350505050565b60008115159050919050565b61063d81610628565b811461064857600080fd5b50565b60008151905061065a81610634565b92915050565b6000602082840312156106765761067561041b565b5b60006106848482850161064b565b9150509291505056fea2646970667358221220ef63ebc7cfe01960d97725a574ca12503fe3d646ae002c244824b32fca3213ab64736f6c63430008120033a26469706673582212208f13a66c4ccc4303f1b7ab079b9d8fc45066a8f71c125a32c42aa6d18a9fdcbc64736f6c63430008120033",
  "linkReferences": {},
  "deployedLinkReferences": {}
}