{
  "_format": "hh-sol-artifact-1",
  "contractName": "SellerContract",
  "sourceName": "contracts/Seller.sol",
  "abi": [
    {
      "inputs": [
        {
          "internalType": "string",
          "name": "_username",
          "type": "string"
        },
        {
          "internalType": "address",
          "name": "_admin",
          "type": "address"
        },
        {
          "internalType": "address",
          "name": "chainToken",
          "type": "address"
        }
      ],
      "stateMutability": "nonpayable",
      "type": "constructor"
    },
    {
      "inputs": [],
      "name": "admin",
      "outputs": [
        {
          "internalType": "address",
          "name": "",
          "type": "address"
        }
      ],
      "stateMutability": "view",
      "type": "function"
    },
    {
      "inputs": [],
      "name": "balanceOfSeller",
      "outputs": [
        {
          "internalType": "uint256",
          "name": "",
          "type": "uint256"
        }
      ],
      "stateMutability": "view",
      "type": "function"
    },
    {
      "inputs": [],
      "name": "token",
      "outputs": [
        {
          "internalType": "contract ChainToken",
          "name": "",
          "type": "address"
        }
      ],
      "stateMutability": "view",
      "type": "function"
    },
    {
      "inputs": [
        {
          "internalType": "uint256",
          "name": "amount",
          "type": "uint256"
        }
      ],
      "name": "transferTokensToAdmin",
      "outputs": [],
      "stateMutability": "nonpayable",
      "type": "function"
    },
    {
      "inputs": [
        {
          "internalType": "address",
          "name": "user",
          "type": "address"
        },
        {
          "internalType": "uint256",
          "name": "amount",
          "type": "uint256"
        }
      ],
      "name": "transferTokensToUser",
      "outputs": [],
      "stateMutability": "nonpayable",
      "type": "function"
    },
    {
      "inputs": [],
      "name": "username",
      "outputs": [
        {
          "internalType": "string",
          "name": "",
          "type": "string"
        }
      ],
      "stateMutability": "view",
      "type": "function"
    }
  ],
  "bytecode": "0x60806040523480156200001157600080fd5b5060405162000e8638038062000e868339818101604052810190620000379190620002cc565b826000908162000048919062000592565b5081600160006101000a81548173ffffffffffffffffffffffffffffffffffffffff021916908373ffffffffffffffffffffffffffffffffffffffff16021790555080600260006101000a81548173ffffffffffffffffffffffffffffffffffffffff021916908373ffffffffffffffffffffffffffffffffffffffff16021790555050505062000679565b6000604051905090565b600080fd5b600080fd5b600080fd5b600080fd5b6000601f19601f8301169050919050565b7f4e487b7100000000000000000000000000000000000000000000000000000000600052604160045260246000fd5b6200013d82620000f2565b810181811067ffffffffffffffff821117156200015f576200015e62000103565b5b80604052505050565b600062000174620000d4565b905062000182828262000132565b919050565b600067ffffffffffffffff821115620001a557620001a462000103565b5b620001b082620000f2565b9050602081019050919050565b60005b83811015620001dd578082015181840152602081019050620001c0565b60008484015250505050565b600062000200620001fa8462000187565b62000168565b9050828152602081018484840111156200021f576200021e620000ed565b5b6200022c848285620001bd565b509392505050565b600082601f8301126200024c576200024b620000e8565b5b81516200025e848260208601620001e9565b91505092915050565b600073ffffffffffffffffffffffffffffffffffffffff82169050919050565b6000620002948262000267565b9050919050565b620002a68162000287565b8114620002b257600080fd5b50565b600081519050620002c6816200029b565b92915050565b600080600060608486031215620002e857620002e7620000de565b5b600084015167ffffffffffffffff811115620003095762000308620000e3565b5b620003178682870162000234565b93505060206200032a86828701620002b5565b92505060406200033d86828701620002b5565b9150509250925092565b600081519050919050565b7f4e487b7100000000000000000000000000000000000000000000000000000000600052602260045260246000fd5b600060028204905060018216806200039a57607f821691505b602082108103620003b057620003af62000352565b5b50919050565b60008190508160005260206000209050919050565b60006020601f8301049050919050565b600082821b905092915050565b6000600883026200041a7fffffffffffffffffffffffffffffffffffffffffffffffffffffffffffffffff82620003db565b620004268683620003db565b95508019841693508086168417925050509392505050565b6000819050919050565b6000819050919050565b6000620004736200046d62000467846200043e565b62000448565b6200043e565b9050919050565b6000819050919050565b6200048f8362000452565b620004a76200049e826200047a565b848454620003e8565b825550505050565b600090565b620004be620004af565b620004cb81848462000484565b505050565b5b81811015620004f357620004e7600082620004b4565b600181019050620004d1565b5050565b601f82111562000542576200050c81620003b6565b6200051784620003cb565b8101602085101562000527578190505b6200053f6200053685620003cb565b830182620004d0565b50505b505050565b600082821c905092915050565b6000620005676000198460080262000547565b1980831691505092915050565b600062000582838362000554565b9150826002028217905092915050565b6200059d8262000347565b67ffffffffffffffff811115620005b957620005b862000103565b5b620005c5825462000381565b620005d2828285620004f7565b600060209050601f8311600181146200060a5760008415620005f5578287015190505b62000601858262000574565b86555062000671565b601f1984166200061a86620003b6565b60005b8281101562000644578489015182556001820191506020850194506020810190506200061d565b8683101562000664578489015162000660601f89168262000554565b8355505b6001600288020188555050505b505050505050565b6107fd80620006896000396000f3fe608060405234801561001057600080fd5b50600436106100625760003560e01c806361fac54d14610067578063d721553814610085578063e42d0aac146100a3578063e56c7a4f146100bf578063f851a440146100db578063fc0c546a146100f9575b600080fd5b61006f610117565b60405161007c9190610493565b60405180910390f35b61008d6101a5565b60405161009a91906104ce565b60405180910390f35b6100bd60048036038101906100b89190610578565b610248565b005b6100d960048036038101906100d491906105b8565b6102ef565b005b6100e36103b7565b6040516100f091906105f4565b60405180910390f35b6101016103dd565b60405161010e919061066e565b60405180910390f35b60008054610124906106b8565b80601f0160208091040260200160405190810160405280929190818152602001828054610150906106b8565b801561019d5780601f106101725761010080835404028352916020019161019d565b820191906000526020600020905b81548152906001019060200180831161018057829003601f168201915b505050505081565b6000600260009054906101000a900473ffffffffffffffffffffffffffffffffffffffff1673ffffffffffffffffffffffffffffffffffffffff166370a08231306040518263ffffffff1660e01b815260040161020291906105f4565b602060405180830381865afa15801561021f573d6000803e3d6000fd5b505050506040513d601f19601f8201168201806040525081019061024391906106fe565b905090565b600260009054906101000a900473ffffffffffffffffffffffffffffffffffffffff1673ffffffffffffffffffffffffffffffffffffffff1663beabacc83084846040518463ffffffff1660e01b81526004016102a79392919061072b565b6020604051808303816000875af11580156102c6573d6000803e3d6000fd5b505050506040513d601f19601f820116820180604052508101906102ea919061079a565b505050565b600260009054906101000a900473ffffffffffffffffffffffffffffffffffffffff1673ffffffffffffffffffffffffffffffffffffffff1663beabacc830600160009054906101000a900473ffffffffffffffffffffffffffffffffffffffff16846040518463ffffffff1660e01b81526004016103709392919061072b565b6020604051808303816000875af115801561038f573d6000803e3d6000fd5b505050506040513d601f19601f820116820180604052508101906103b3919061079a565b5050565b600160009054906101000a900473ffffffffffffffffffffffffffffffffffffffff1681565b600260009054906101000a900473ffffffffffffffffffffffffffffffffffffffff1681565b600081519050919050565b600082825260208201905092915050565b60005b8381101561043d578082015181840152602081019050610422565b60008484015250505050565b6000601f19601f8301169050919050565b600061046582610403565b61046f818561040e565b935061047f81856020860161041f565b61048881610449565b840191505092915050565b600060208201905081810360008301526104ad818461045a565b905092915050565b6000819050919050565b6104c8816104b5565b82525050565b60006020820190506104e360008301846104bf565b92915050565b600080fd5b600073ffffffffffffffffffffffffffffffffffffffff82169050919050565b6000610519826104ee565b9050919050565b6105298161050e565b811461053457600080fd5b50565b60008135905061054681610520565b92915050565b610555816104b5565b811461056057600080fd5b50565b6000813590506105728161054c565b92915050565b6000806040838503121561058f5761058e6104e9565b5b600061059d85828601610537565b92505060206105ae85828601610563565b9150509250929050565b6000602082840312156105ce576105cd6104e9565b5b60006105dc84828501610563565b91505092915050565b6105ee8161050e565b82525050565b600060208201905061060960008301846105e5565b92915050565b6000819050919050565b600061063461062f61062a846104ee565b61060f565b6104ee565b9050919050565b600061064682610619565b9050919050565b60006106588261063b565b9050919050565b6106688161064d565b82525050565b6000602082019050610683600083018461065f565b92915050565b7f4e487b7100000000000000000000000000000000000000000000000000000000600052602260045260246000fd5b600060028204905060018216806106d057607f821691505b6020821081036106e3576106e2610689565b5b50919050565b6000815190506106f88161054c565b92915050565b600060208284031215610714576107136104e9565b5b6000610722848285016106e9565b91505092915050565b600060608201905061074060008301866105e5565b61074d60208301856105e5565b61075a60408301846104bf565b949350505050565b60008115159050919050565b61077781610762565b811461078257600080fd5b50565b6000815190506107948161076e565b92915050565b6000602082840312156107b0576107af6104e9565b5b60006107be84828501610785565b9150509291505056fea264697066735822122012325c6085129e313b800d57ade8e1864a5d05111a918c6fedfa85f50d4eb9fb64736f6c63430008120033",
  "linkReferences": {},
  "deployedLinkReferences": {}
}